:100000000210698F993099FDC299220212BD438E68
:10001000805389F0758ACD758CD4C28DD28CD2A9CB
:10002000D2AF22021461759850538EBF538EFE5387
:10003000890F758BE8758DFFC2ABD28ED2ACD2AF73
:01004000229D
:1000430002135EAD071214AF7F78E4FEEEC394088B
:10005300748094805017EF30E704D2A18002C2A1CC
:10006300D2A00000C2A0EF25E0FF0E80DFD2A100E6
:1000730000D2A00000A2A19200C2A0A20022C2B29C
:1000830012148DC2B502149302126EE4FF0212F42D
:100093000211C50202A1E86480F8E933E833601174
:1000A3000460F0ED33EC337009E8FCE9FDEAFEEBA4
:1000B300FF220460DED3EB9FEA9EE99DE8C2E78C52
:1000C300F0C2F795F0400CE8CCF8E9CDF9EACEFAA6
:1000D300EBCFFB12026C85D0F05804700320D5B32C
:1000E300E80470075002B2D50202AB92D5EC04606B
:1000F300F7E4CCC0E0C398F8603B94186008400D67
:10010300D0E0FB020283E4FBFAC9FC8028E830E478
:1001130006E4C9FBE4CAFCE830E305E4C9CACBFC46
:10012300E854076010F8C3E913F9EA13FAEB13FB79
:10013300EC13FCD8F130F52FC3E49CFCEF9BFFEEEE
:100143009AFEED99FDD0E0FBEF4E4D4C701222DB91
:10015300030202A8EC2CFCEF33FFEE33FEED33FD7C
:10016300ED30E7EB020283EF2BFFEE3AFEED39FDB4
:10017300D0E0FB50130BBB00030202ABED13FDEE0B
:1001830013FEEF13FFEC13FC0202830202ABEC5DE0
:10019300046005E8590470030202A112026C5804BA
:1001A30060F6EC4860F2EC7004FDFEFF22C860DBF1
:1001B3002481C85009C398600250060202A89850CF
:1001C300CAF582E9294B4A7005AB8202029775F0A2
:1001D300007C1A7880C3EF9BEE9AED99400DC3EF34
:1001E3009BFFEE9AFEED99FDE842F0DC23ACF0D0E4
:1001F300E0FFD0E0FED0E0FDAB8220E7101BEB6018
:10020300BAEC2CFCEF33FFEE33FEED33FD02028339
:10021300E803F830E705C0F075F000EF2FFFEE3389
:10022300FEED33FD40B830E7C280AA75F020800EA2
:1002330075F010800575F0087D007E007F00339215
:10024300D530D50312088BEC334010EF33FFEE3378
:10025300FEED33FDEC33FCD5F0ED22E5F0247EA278
:10026300D513CC92E7CDCEFF22E9D2E7C933E833E9
:10027300F892D5EDD2E7CD33EC33FC5002B2D52260
:10028300EC30E7100FBF000C0EBE00080DBD0004DC
:100293000BEB6014A2D5EB13FCED92E7FD2274FF88
:1002A300FCFDFEFF22E480F8A2D574FF13FC7D80E1
:1002B300E480EFF920E73624F950037907E4F424C6
:1002C30002FBE582158270021583DBF6E024FB5006
:1002D3001BE96014E4F0E582158270021583E004E3
:1002E300F0B40A08E4F0D9EE7401F00A22C2D52270
:1002F300ED33EC3392D5FA602AB4FF33EDC2E77BDA
:10030300FF60067A037918E4227A03792120D50461
:100313007A03791C224E614E002B494E46002D492B
:100323004E4600E47A08F0A3DAFC7B00740722C08F
:1003330083C082ECC0E0EDC0E0EEC0E0EFC0E0EAD5
:1003430075F010A4CAABF075F04DA42BFBE435F0A7
:10035300FCEA2410FAEB34C5FBEC34D9FCEDC2E71C
:10036300FF75F056A4F42411C5F0F434C58FF0A43E
:100373002AE5F03BE43CF020E71412052ED0E0FF21
:10038300D0E0FED0E0FDD0E0FC1201918014F40433
:1003930012052ED0E0FFD0E0FED0E0FDD0E0FC124D
:1003A30003F8D082D083E0FAEDD2E7CD33EC3324E7
:1003B30082FBE4C3CF33CFCE33CECD33CD33DBF3A8
:1003C3007B0775F00A846004F0A31B0AE5F0F0A331
:1003D3008FF0740AA4FFACF08EF0740AA42CFEAC68
:1003E300F050010C8DF0740AA42CFDE435F0F0A359
:1003F300DBDE740722EC4D6011E8497017ED33EC36
:100403003304600DE4FCFFFEFD22E933E83304709E
:10041300F80202A112026C58046009E4CC24815052
:10042300062850090202AB2840030202A8C0E0EBF1
:100433004A7044B98006D0E0FB020297EF4E701C6D
:10044300BD8008EBFFEAFEE9FD80EBE98DF0A4FE39
:10045300E5F00204E1E9CDF9EAFEEBFFEF89F0A450
:10046300FCE5F0CE89F0A42EFFE435F0CD89F0A4AD
:100473002DFEE435F08067EF4E7005BD80D780C355
:10048300EF8BF0A4ACF0EE8BF0A42CFCE435F0F889
:10049300EF8AF0A42CE5F038FCE433CB8DF0A42CE8
:1004A300FCE5F03BF8EE8AF0A42CFCE5F038F8E428
:1004B30033CF89F0A42CFCE5F038CF3400CE89F09B
:1004C300A42FFFE5F03EFEE433C98DF0A42EFEE534
:1004D300F039CD8AF0A42FFFE5F03EFEE43DFD3375
:1004E300D0E0FB50070BBB000F0202ABEC2CFCEF80
:1004F30033FFEE33FEED33FD0202833F8000004104
:1005030020000042C80000447A0000461C40004717
:10051300C35000497424004B1896804CBEBC205A2B
:100523000E1BCA6753C21C749DC5AEFB60065407FD
:10053300601C232312055CEB543860091205481232
:1005430005571203F8ECF8EDF9EEFAEFCB22EB12B4
:10055300055780F1543803241C9004FEFE93FC0ECF
:10056300EE93FD0EEE930ECE93FF22E709F608DF1E
:10057300FA8046E709F208DFFA803E88828C83E737
:1005830009F0A3DFFA8032E309F608DFFA8078E3A3
:1005930009F208DFFA807088828C83E309F0A3DF15
:1005A300FA806489828A83E0A3F608DFFA80588997
:1005B300828A83E0A3F208DFFA804C80D280FA803B
:1005C300C680D4806980F28033801080A680EA8060
:1005D3009A80A880DA80E280CA803389828A83EC99
:1005E300FAE493A3C8C582C8CCC583CCF0A3C8C51D
:1005F30082C8CCC583CCDFE9DEE7800D89828A839C
:10060300E493A3F608DFF9ECFAA9F0EDFB22898263
:100613008A83ECFAE0A3C8C582C8CCC583CCF0A317
:10062300C8C582C8CCC583CCDFEADEE880DB89821B
:100633008A83E493A3F208DFF980CC88F0EF6001AA
:100643000E4E60C388F0ED2402B4040050B9F58265
:10065300EB2402B4040050AF23234582239005BE4C
:1006630073BB010689828A83E0225002E722BBFE24
:1006730002E32289828A83E49322BB010CE5822967
:10068300F582E5833AF583E0225006E92582F8E610
:1006930022BBFE06E92582F8E222E58229F582E5FE
:1006A300833AF583E49322BB010689828A83F0228D
:1006B3005002F722BBFE01F322EF8DF0A4A8F0CF86
:1006C3008CF0A428CE8DF0A42EFE22BC000BBE001D
:1006D30029EF8DF084FFADF022E4CCF875F008EF3C
:1006E3002FFFEE33FEEC33FCEE9DEC984005FCEE61
:1006F3009DFE0FD5F0E9E4CEFD22EDF8F5F0EE8492
:1007030020D21CFEADF075F008EF2FFFED33FD4056
:1007130007985006D5F0F222C398FD0FD5F0EA22D0
:10072300C5F0F8A3E028F0C5F0F8E5821582700261
:100733001583E038F022A3F8E0C5F025F0F0E58258
:10074300158270021583E0C838F0E822BB010A89DC
:10075300828A83F0E5F0A3F0225006F709A7F01987
:1007630022BBFE06F3E5F009F31922E88FF0A4CCCF
:100773008BF0A42CFCE98EF0A42CFC8AF0EDA42CC5
:10078300FCEA8EF0A4CDA8F08BF0A42DCC3825F094
:10079300FDE98FF0A42CCD35F0FCEB8EF0A4FEA97F
:1007A300F0EB8FF0A4CFC5F02ECD39FEE43CFCEA8C
:1007B300A42DCE35F0FDE43CFC2275F008758200D3
:1007C300EF2FFFEE33FECD33CDCC33CCC58233C513
:1007D300829BED9AEC99E58298400CF582EE9BFEA4
:1007E300ED9AFDEC99FC0FD5F0D6E4CEFBE4CDFAFF
:1007F300E4CCF9A88222B800C1B90059BA002DECA3
:100803008BF084CFCECDFCE5F0CBF97818EF2FFF3A
:10081300EE33FEED33FDEC33FCEB33FB10D70399E2
:100823004004EB99FB0FD8E5E4F9FA227818EF2F8F
:10083300FFEE33FEED33FDEC33FCC933C910D705AE
:100843009BE99A4007EC9BFCE99AF90FD8E0E4C9CD
:10085300FAE4CCFB2275F010EF2FFFEE33FEED33FD
:10086300FDCC33CCC833C810D7079BEC9AE899402A
:100873000AED9BFDEC9AFCE899F80FD5F0DAE4CD8C
:10088300FBE4CCFAE4C8F922C3E49FFFE49EFEE450
:100893009DFDE49CFC22ECF0A3EDF0A3EEF0A3EFAE
:1008A300F022A8828583F0D083D0821208BC12087C
:1008B300BC1208BC1208BCE473E493A3C583C5F05F
:1008C300C583C8C582C8F0A3C583C5F0C583C8C5A1
:1008D30082C822F8E0FBA3A3E0F925F0F0E5821536
:1008E3008270021583E0FA38F022EBF0A3EAF0A35A
:1008F300E9F022D083D082F8E493701274019370EC
:100903000DA3A393F8740193F5828883E4737402AF
:10091300936860EFA3A3A380DFEF4E6012EF600143
:100923000EEDBB010B89828A83F0A3DFFCDEFA2282
:1009330089F05007F709DFFCA9F022BBFEFCF3099D
:10094300DFFCA9F022E508244FF582E43400F583A7
:10095300E005082290004C30070390004FE475F047
:10096300011208D60206642000E97F2ED200801807
:10097300EF540F2490D43440D4FF30040BEF24BF42
:10098300B41A0050032461FFE50960021509050C40
:10099300E50C7002050B30070E90004CE475F00176
:1009A3001208D6EF0206AA02138D7403D20780033E
:1009B300E4C207F50890004C1208EDE4F509F50BC5
:1009C300F50CE50960077F2012098B80F5750AFF96
:1009D300C201C200C202C203C205C206C208120992
:1009E30057FF700D3007057F0012099CAF0CAE0B4B
:1009F30022B4255FC2D5C204120957FF24D0B40A1A
:100A030000501A75F00A780930D50508B6FF0106BB
:100A1300C6A426F620D5047002D20380D924CFB40D
:100A23001A00EF5004C2E5D204020C8ED20180C634
:100A3300D20080C0D20280BCD2D580BAD20580B4A5
:100A43007F2012098B2002077401B5090040F112BF
:100A53000948FF12098B0209C5D208D206809512F4
:100A63000948FB120948FA120948F94A4B700679FA
:100A73008C7A0D7BFF20022EE509602A7E008E8290
:100A830075830012067D60060EEE650A70F0C2D50E
:100A9300EBC0E0EAC0E0E9C0E0EE120CEFD0E0F911
:100AA300D0E0FAD0E0FB120664FF60AAEBC0E0EAF4
:100AB300C0E0E9C0E012098BD0E02401F9D0E034B2
:100AC30000FAD0E0FBE50A0460DCD50AD98087D2BE
:100AD3000280A2120CD160F7E50A7001041202B67B
:100AE300A90A600DE50A600914F50A120D79EF6091
:100AF300F3EA30E702F404C3995079EAF4250A04CF
:100B030030E701E404F50A800D120CD160C1EA0557
:100B13000A250A1202B6EA90007BF030E701E425C9
:100B23000A04D50A0420050114120CEFE4C0E012F4
:100B33000D7990007BE0601320E70714F01209732E
:100B4300802204F0D0E014C0E07F00120973E50AAC
:100B5300600712096A150A800B30050312096AD06F
:100B6300E00209C5D0E00480C4120CD1609EE50AFE
:100B7300041202B690007BEAF0E50A200502600148
:100B8300042404120CEF74FF04C0E0120D7912095F
:100B930073E50A200502600312096AD0E0B50AE88A
:100BA3007F4512097D90007BE07F2B30E7047F2D8A
:100BB300F404C0E012098BD0E075F00A84C0F0128F
:100BC3000974D0E01209740209C57910800279080A
:100BD300C206C2088008D2D5790A8004790AC2D530
:100BE300E50A047002F50AE4FAFDFEFF120948FC67
:100BF3007B08200113120948FD7B1030000A1209FB
:100C030048FE120948FF7B20EC3382D592D550135E
:100C1300C3E43000069FFFE49EFEE42001039DFD34
:100C2300E49CFCE4CBF8C201EC700CCFCECDCCE855
:100C330024F8F870F38017C3EF33FFEE33FEED3380
:100C4300FDEC33FCEB33FB994002FB0FD8E9EB30AF
:100C53000105F8D0E0C448B201C0E00AEC4D4E4FA4
:100C630078207B0070C2EAB50A0040BCC0E0120CD9
:100C7300F1D0F0D0E0200104C4C0E0C4B201C0F060
:100C8300120974D0F0D5F0EB0209C51208F60A6216
:100C9300530BCD580A334C0A2F420BD14F0BD94477
:100CA3000BD9490A48430BDF550B0C460B6C450A1D
:100CB300D6470DAC500A372D0A3B2E0A5E2B0A3F4E
:100CC300230A5C200D952A09F74800000A56E50A15
:100CD300B4FF03750A06120948FC120948FD1209FC
:100CE30048FE120948FF9000740202F3790AA2D564
:100CF300200314300509B910020404B9080104A241
:100D0300D52006025001042002689202B509005062
:100D130034C0E07F203003197F30A20272067205CF
:100D2300500F120D48C202C206C205C2087F3080AE
:100D33000F300503E9C0E012098B300503D0E0F959
:100D4300D0E0B509CC3005177F30B9100C12098BF0
:100D53007F583004077F788003B9080312098B306A
:100D630002057F2D02098B7F202008F87F2B2006A8
:100D7300F322920280CF7F00B40700500B2474F556
:100D830082E43400F583E0FF22286E756C6C290041
:100D9300D2011209483001F8C201780930D501089F
:100DA300F60209F72D504349581209482403B405A4
:100DB300004001E4900DA79312097C743A12097C58
:100DC300D203750904020BCDE490004AF0A3F0129C
:100DD300000E12002612142E1213F2121410120F08
:100DE300D31214797B017A00790F12144990004FC2
:100DF3007401F0A37400F0A37414F0A37401F0A3BE
:100E03007400F0A37412F07B017A00790D12121CA6
:100E13001214C590004AEFF090009CE07008900017
:100E23004AE06401700DE490009CF0900016E00429
:100E33005403F090009DE0700890004AE064027053
:100E43001BE490009DF0900016E025E02405F58258
:100E5300E43400F583E475F00112072390009EE06B
:100E6300700890004AE06403701BE490009EF090C9
:100E73000016E025E02405F582E43400F58374FFD1
:100E8300F5F01207237E007F327D007B017A007923
:100E93001712091C90004F74FFF0A37414F0A3748D
:100EA300C8F090000FE0FFA3E0900052CFF0A3EF53
:100EB300F0900005E0FFA3E0900054CFF0A3EFF023
:100EC30090000DE0FFA3E0900056CFF0A3EFF09069
:100ED3000007E0FFA3E0900058CFF0A3EFF09000ED
:100EE30014E0FFA3E090005ACFF0A3EFF0900009C5
:100EF300E0FFA3E090005CCFF0A3EFF0900012E0DE
:100F0300FFA3E090005ECFF0A3EFF090000BE0FFB3
:100F1300A3E0900060CFF0A3EFF07B017A00791794
:100F23001209AD7F2C1200037B017A00791712138B
:100F33002B7F60120003020DE742000F0000420006
:100F43000300004100160041001100480005001E87
:100F5300001E001E00506032001700000000000059
:100F6300000000000000000000000000000000007E
:100F7300000000000000000000000000000000006E
:100F8300000000000000000000000000410000001D
:100F9300420001000041009C0041009D0041009E71
:100FA3000041007C004A007D0000000000000000BA
:100FB3000000410087004A00880000000000000094
:100FC3000000004100AB004100A9004100AA00005D
:100FD3007F027E001213B47FAE12149F7F2012147F
:100FE3009F7F1012149F7FB012149F7FC812149F0B
:100FF300E4FF12149F7F1012149F7F4012149F7FEF
:101003008112149F7FFF12149F7FA112149F7FA64A
:1010130012149F7FA812149F7F3F12149F7FA41264
:10102300149F7FD312149FE4FF12149F7FD51214D1
:101033009F7FF012149F7FD912149F7F2212149F57
:101043007FDA12149F7F1212149F7FDB12149F7F8B
:101053002012149F7F8D12149F7F1412149F7FAF51
:1010630012149F02008E787FE4F6D8FD7581210269
:1010730010B0020DCBE493A3F8E493A34003F680EE
:1010830001F208DFF48029E493A3F85407240CC881
:10109300C333C4540F4420C8834004F4568001462C
:1010A300F6DFE4800B0102040810204080900F3C1F
:1010B300E47E019360BCA3FF543F30E509541FFE57
:1010C300E493A360010ECF54C025E060A840B8E4C8
:1010D30093A3FAE493A3F8E493A3C8C582C8CAC54B
:1010E30083CAF0A3C8C582C8CAC583CADFE9DEE7DD
:1010F30080BE90007CE0FE04F0747D2EF582E43423
:1011030000F583EFF090007CE064017018A3E064C5
:101113002C6012E490007CF0FE7F0AFD7B017A00D4
:10112300797D02091C90007CE0C39406748094804E
:101133004027789F7C007D017B017A00797D7E00CA
:101143007F0A12063E7E007F0A7D007B017A0079CA
:101153007D12091CE490007CF022900087E0FE04DD
:10116300F074882EF582E43400F583EFF090008765
:10117300E064017018A3E0642C6012E4900087F02F
:10118300FE7F0AFD7B017A00798802091C900087A3
:10119300E0C3940874809480402778927C007D019A
:1011A3007B017A0079887E007F0A12063E7E007FEB
:1011B3000A7D007B017A00798812091CE49000877C
:1011C300F022C0E0C083C082C0D075D000C004C08C
:1011D30005C007E58430E0285384FEAF85EFFD7C2E
:1011E30000640C700590009C04F0ED64184C7005CD
:1011F30090009D04F0ED645E4C700590009E04F039
:10120300E58430E1055384FDC20AD007D005D0043C
:10121300D0D0D082D083D0E032900092E0604BA354
:10122300E0FEA3E07C002400FFEC3E8FF012074FAA
:10123300900095E0FEA3E02400FFEC3EF990004F00
:10124300E0FBA3E0FAA3E0C98FF012074F900097E9
:10125300E0FEA3E02400FFEC3EF9900052E0FBA384
:10126300E0FAA3E0C98FF012074F22C0E0C0F0C03C
:1012730083C082C0D075D000C000C001C002C003CB
:10128300C004C005C006C007E5AC30E00853ACFE9F
:10129300AFAD1210F5E5AC30E10553ACFDC209D09A
:1012A30007D006D005D004D003D002D001D000D09F
:1012B300D0D082D083D0F0D0E032C0E0C083C082EF
:1012C300C0D0900000E004F0900002E004F070064B
:1012D300900001E004F0900001E0B4030BA3E0B43C
:1012E300E8069000117401F0D0D0D082D083D0E012
:1012F30032AC07E4FBEBC39408748094805028EB72
:1013030024B0FF12149FE4FF12149F7F1012149F46
:10131300E4FAEAC39480748094805008AF041213F3
:10132300E20A80EE0B80CE2290004CEBF0A3EAF0B1
:10133300A3E9F090004CE0FBA3E0FAA3E0F9120666
:1013430064601790004CA3E475F001120739A9F00B
:10135300FA120664FF12000380D922C0E0C0F0C075
:1013630083C082C0D075D010E59A30E008539AFE4E
:10137300AF9B12115DE59A30E105539AFDC20BD084
:10138300D0D082D083D0F0D0E032EFB40A07740D0E
:10139300121398740A309811A899B8130CC2983094
:1013A30098FDA899C298B811F63099FDC299F5999C
:1013B30022D3EF9400EE9400401500007D037C1AC5
:1013C3007BDFDBFEDCFCDDFAEF1F70E51E80E22233
:1013D300F583E5822CF582E43583F583E493FF12EC
:1013E30000467F4012004DAF0512004D0214BB753D
:1013F300AC1053ACBF438E0475D7E075D6FE438E55
:101403001053AFF743AF08D2AF53BAFD2275841020
:101413005384BF438E0475D7E075D6FE438E1053B5
:10142300AFEF43AF10D2AF53BAFB22759A50438E3E
:101433000475D7E075D6FE438E1053AFFE43AF015C
:10144300D2AF53BAFE2290009FE06011A3E0FEA347
:10145300E07C002400FFEC3E8FF012074F22C0E037
:10146300C083C082309808C298900049E599F0D0B3
:1014730082D083D0E0327F381200817F0C1200814A
:101483007F061200817F01020081C2B38FA0D2B513
:101493000000007F0B7EBEDEFEDFFC22120046E46E
:1014A300FF12004DAF0512004D0214BBD2A0D2A112
:1014B30000C2A10000C2A022C2A100D2A00000D29B
:1014C300A122E4FF2225752D25752D25752D257562
:0D14D3002D25752D25752D25752D257500F0
:00000001FF
