:05000000020B1C2D00A5
:10000B00020FB67F381211FF7F0C1211FF7F061201
:07001B0011FF7F010211FF3C
:1000230002104A759850538EBF538EFE53890F7535
:0E0033008BE8758DFFC2ABD28ED2ACD2AF225D
:1000430002109AE50824C8F582E43400F583E0053C
:1000530008229000C53007039000C8E475F0011230
:1000630005D70204A12000E97F2ED2008018EF54A7
:100073000F2490D43440D4FF30040BEF24BFB41AC0
:100083000050032461FFE50960021509050CE50C26
:100093007002050B30070E9000C5E475F0011205E0
:1000A300D7EF0205C50210737403D2078003E4C2BD
:1000B30007F5089000C51205EEE4F509F50BF50CFC
:1000C300E50960077F2012008980F5750AFFC201E8
:1000D300C200C202C203C205C206C208120055FF13
:1000E300700D3007057F0012009AAF0CAE0B22B4DF
:1000F300255FC2D5C204120055FF24D0B40A0050B4
:100103001A75F00A780930D50508B6FF0106C6A4AA
:1001130026F620D5047002D20380D924CFB41A0066
:10012300EF5004C2E5D20402029BD20180C6D20082
:1001330080C0D20280BCD2D580BAD20580B47F20E1
:100143001200892002077401B5090040F11200462C
:10015300FF1200890200C3D208D20680951200461E
:10016300FB120046FA120046F94A4B7006796C7A84
:10017300037BFF20022EE509602A7E008E827583B1
:10018300001204BA60060EEE650A70F0C2D5EBC029
:10019300E0EAC0E0E9C0E0EE1202E2D0E0F9D0E02C
:1001A300FAD0E0FB1204A1FF60AAEBC0E0EAC0E0D2
:1001B300E9C0E0120089D0E02401F9D0E03400FA6C
:1001C300D0E0FBE50A0460DCD50AD980877BFF7A9F
:1001D3000279DED202809C791080027908C206C2BD
:1001E300088008D2D5790A8004790AC2D5E50A04C1
:1001F3007002F50AE4FAFDFEFF120046FC7B0820BC
:100203000113120046FD7B1030000A120046FE1255
:100213000046FF7B20EC3382D592D55013C3E430E4
:1002230000069FFFE49EFEE42001039DFDE49CFC89
:10023300E4CBF8C201EC700CCFCECDCCE824F8F8B7
:1002430070F38017C3EF33FFEE33FEED33FDEC3372
:10025300FCEB33FB994002FB0FD8E9EB300105F8C7
:10026300D0E0C448B201C0E00AEC4D4E4F78207B89
:100273000070C2EAB50A0040BCC0E01202E4D0F04C
:10028300D0E0200104C4C0E0C4B201C0F012007287
:10029300D0F0D5F0EB0200C31205F701605301DA89
:1002A3005801314C012D4201DE4F01E64401E6497C
:1002B30001464301EC5501D04601D04501D0470327
:1002C3008C5001352D01392E015C2B013D23015A40
:1002D3002003752A00F548000001543F3F3F007991
:1002E3000AA2D5200314300509B910020404B90881
:1002F3000104A2D52006025001042002689202B52F
:1003030009005034C0E07F203003197F30A202720D
:10031300067205500F12033BC202C206C205C20891
:100323007F30800F300503E9C0E0120089300503F8
:10033300D0E0F9D0E0B509CC3005177F30B9100C07
:100343001200897F583004077F788003B9080312AD
:1003530000893002057F2D0200897F202008F87F65
:100363002B2006F322920280CF286E756C6C290035
:10037300D2011200463001F8C201780930D50108D4
:10038300F60200F52D504349581200462403B405E4
:10039300004001E49003879312007A743A12007AC2
:1003A300D2037509040201DAE709F608DFFA804689
:1003B300E709F208DFFA803E88828C83E709F0A31D
:1003C300DFFA8032E309F608DFFA8078E309F208FE
:1003D300DFFA807088828C83E309F0A3DFFA8064FC
:1003E30089828A83E0A3F608DFFA805889828A83A8
:1003F300E0A3F208DFFA804C80D280FA80C680D472
:10040300806980F28033801080A680EA809A80A879
:1004130080DA80E280CA803389828A83ECFAE493AB
:10042300A3C8C582C8CCC583CCF0A3C8C582C8CC39
:10043300C583CCDFE9DEE7800D89828A83E493A359
:10044300F608DFF9ECFAA9F0EDFB2289828A83EC46
:10045300FAE0A3C8C582C8CCC583CCF0A3C8C582C3
:10046300C8CCC583CCDFEADEE880DB89828A83E4FB
:1004730093A3F208DFF980CC88F0EF60010E4E60A1
:10048300C388F0ED2402B4040050B9F582EB2402D2
:10049300B4040050AF23234582239003FB73BB01B5
:1004A3000689828A83E0225002E722BBFE02E3220E
:1004B30089828A83E49322BB010CE58229F582E5D4
:1004C300833AF583E0225006E92582F8E622BBFE53
:1004D30006E92582F8E222E58229F582E5833AF5E9
:1004E30083E49322EF8DF0A4A8F0CF8CF0A428CE60
:1004F3008DF0A42EFE22BC000BBE0029EF8DF084EC
:10050300FFADF022E4CCF875F008EF2FFFEE33FED9
:10051300EC33FCEE9DEC984005FCEE9DFE0FD5F010
:10052300E9E4CEFD22EDF8F5F0EE8420D21CFEAD19
:10053300F075F008EF2FFFED33FD4007985006D517
:10054300F0F222C398FD0FD5F0EA22C5F0F8A3E03C
:1005530028F0C5F0F8E582158270021583E038F0C3
:1005630022A3F8E0C5F025F0F0E5821582700215AC
:1005730083E0C838F0E822BB010A89828A83F0E568
:10058300F0A3F0225006F709A7F01922BBFE06F3E9
:10059300E5F009F31922EF4E6012EF60010EEDBB97
:1005A300010B89828A83F0A3DFFCDEFA2289F050F3
:1005B30007F709DFFCA9F022BBFEFCF309DFFCA966
:1005C300F022BB010689828A83F0225002F722BB04
:1005D300FE01F322F8E0FBA3A3E0F925F0F0E582A6
:1005E300158270021583E0FA38F022EBF0A3EAF0EB
:1005F300A3E9F022D083D082F8E4937012740193BC
:10060300700DA3A393F8740193F5828883E4737444
:1006130002936860EFA3A3A380DFE490007DF0A3BF
:10062300F012000E1211F412119F12002612116B18
:10063300D2A6C2A712114B90007EEFF06013900177
:1006430061E02401FFE433FE7C007D031204F9ED35
:10065300F02009030207329000827401F0A37401B1
:10066300F0A3746AF0A37401F0A37401F0A3745DA2
:10067300F0A37401F0A37401F0A37464F0A37401F4
:10068300F0A37401F0A37468F0A37401F0A37401E0
:10069300F0A3746CF0A37401F0A37401F0A374626B
:1006A300F0A37401F0A37401F0A37466F07B017AE4
:1006B30001795F1207E812112890015BEEF0A3EFB6
:1006C300F0900168E0FEA3E0FF7C007D0A1204F9CC
:1006D300EF24F9FFEE34FF900168F0A3EFF09001EF
:1006E30062E0FEA3E0FF7C007D0A1204F990016240
:1006F300EEF0A3EFF090015FE0FEA3E0FF7C007D4E
:10070300641204E77C077DD01204F990015FEEF0D8
:10071300A3EFF090015DE0FEA3E0FF7C007D0A12F1
:1007230004F990015DEEF0A3EFF0120E40C20990C0
:10073300016CE0FEA3E0FF900168E0FCA3E0FDD3C1
:100743009FEC9E5012A3E0FEA3E0FF900160E09FA8
:1007530090015FE09E4006D2A7C2A68004C2A7D242
:10076300A690016AE0FEA3E0FFD3900160E09F90B2
:10077300015FE09E5014900164E0FEA3E0FF90014E
:100783005EE09F90015DE09E4004D2A08002C2A083
:1007930090016CE0FEA3E0FFD3ED9FEC9E4004D2FA
:1007A300A18002C2A1900166E0FEA3E0FFD3900105
:1007B30063E09F900162E09E4004D2A28002C2A245
:1007C300900161E07003120BA8900161E064017075
:1007D30003120C30900161E06402600302063712D9
:1007E3000F1902063790007FEBF0A3EAF0A3E9F0BC
:1007F3007B00900123E0FF3395E0FEEF4E70030290
:10080300095C90009A74FFF0A37400F0A37403F0E2
:100813000B7A01792412095D120A4190007FE0FBF3
:10082300A3E0FAA3E0F9EE8FF012057A90009A7430
:10083300FFF0A37400F0A37403F07B007A00790047
:1008430012095D120A41900082E0FBA3E0FAA3E0E3
:10085300F9EE8FF012057A90009A74FFF0A37400FA
:10086300F0A37403F07B007A00790012095D120A89
:1008730041900085E0FBA3E0FAA3E0F9EE8FF012CC
:10088300057A90009A74FFF0A37400F0A37403F048
:100893007B007A00790012095D120A41900088E01A
:1008A300FBA3E0FAA3E0F9EE8FF012057A90009A29
:1008B30074FFF0A37400F0A37403F07B007A007953
:1008C3000012095D120A4190008BE0FBA3E0FAA33A
:1008D300E0F9EE8FF012057A90009A74FFF0A3749A
:1008E30000F0A37403F07B007A00790012095D1213
:1008F3000A4190008EE0FBA3E0FAA3E0F9EE8FF04B
:1009030012057A90009A74FFF0A37400F0A37403A5
:10091300F07B007A00790012095D120A4190009180
:10092300E0FBA3E0FAA3E0F9EE8FF012057A900062
:100933009A74FFF0A37400F0A37403F07B007A00B1
:10094300790012095D120A41900094E0FBA3E0FADA
:10095300A3E0F9EE8FF012057A22900097EBF0A353
:10096300EAF0A3E9F0900097E0FBA3E0FAA3E04AE2
:100973004B701590016EE0F9A3E0FAA3E0900097A5
:10098300C9F0A3EAF0A3E9F0900097E0FBA3E0FA33
:10099300A3E04A4B7004FBFAF92290009AE0F9A312
:1009A300E0FAA3E09000A0C9F0A3EAF0A3E9F09075
:1009B3000097E0FBA3E0FAA3E0F9120CB8900098CB
:1009C300EE8FF012054E900097E0FBA3E0FAA3E050
:1009D300F91204A17012F990016EC9F0A3F0A3E912
:1009E300F07B007A0079002290009AE0F9A3E0FA04
:1009F300A3E09000A0C9F0A3EAF0A3E9F090009768
:100A0300E0FBA3E0FAA3E0F9120DBF90016EEBF057
:100A1300A3EAF0A3E9F04A4B601890016EE0FBA350
:100A2300E0FAA3E0F9E41205C590016F75F0011235
:100A3300054E900097E0FBA3E0FAA3E0F9229000B3
:100A430097EBF0A3EAF0A3E9F0900097E0FBA3E0B3
:100A5300FAA3E0F91204A1FF1211B6500C9000980A
:100A6300E475F00112054E80E0D200900097E0FBA0
:100A7300A3E0FAA3E0F91204A1FF642B6004EFB42E
:100A83002D1D900097E0FBA3E475F001120564A906
:100A9300F0FA1204A1642D6003D38001C39200E431
:100AA30090009AF0A3F0900097E0FBA3E0FAA3E094
:100AB300F91204A1FF1211D95042900097E0FBA351
:100AC300E0FAA3E0F91204A1FF3395E0FEEF24D08E
:100AD300FBEE34FFFA90009AE0FEA3E0FF7C007D7A
:100AE3000A1204E7EF2BFFEE3A90009AF0A3EFF01F
:100AF300900098E475F00112054E80AA30000A9028
:100B0300009AE0FEA3E0FF800F90009AE0FEA3E0CE
:100B1300FFC3E49FFFE49EFE22787FE4F6D8FD75D1
:100B23008121020B6302061DE493A3F8E493A3401F
:100B330003F68001F208DFF48029E493A3F8540755
:100B4300240CC8C333C4540F4420C8834004F45650
:100B5300800146F6DFE4800B010204081020408088
:100B6300900F6AE47E019360BCA3FF543F30E50914
:100B7300541FFEE493A360010ECF54C025E060A888
:100B830040B8E493A3FAE493A3F8E493A3C8C5821B
:100B9300C8CAC583CAF0A3C8C582C8CAC583CADF89
:100BA300E9DEE780BE7BFF7A1279137D017F0112B4
:100BB300101D90015FE0FAA3E0FB9000837403F043
:100BC3007D057F011211057BFF7A1279187D0A7F5B
:100BD3000112101D90016AE0FAA3E0FB90008374F8
:100BE30003F07D0D7F011211057BFF7A12791C7DC5
:100BF300017F0212101D90015DE0FAA3E0FB90005B
:100C0300837403F07D057F021211057BFF7A12794D
:100C1300187D0A7F0212101D900164E0FAA3E0FB25
:100C23009000837403F07D0D7F020211057BFF7A30
:100C33001279217D017F0112101D900168E0FAA352
:100C4300E0FB9000837403F07D057F011211057BA7
:100C5300FF7A1279187D0A7F0112101D90016CE052
:100C6300FAA3E0FB9000837403F07D0D7F01121162
:100C7300057BFF7A1279267D017F0212101D9001F8
:100C830062E0FAA3E0FB9000837403F07D057F022A
:100C93001211057BFF7A1279187D0A7F0212101D4B
:100CA300900166E0FAA3E0FB9000837403F07D0DEE
:100CB3007F0202110590009DEBF0A3EAF0A3E9F097
:100CC300E49000A3F0A3F0E4FEFF9000A0E0FBA3F8
:100CD300E0FAA3E0F98F828E831204BAFD601890C4
:100CE300009DE0FBA3E0FAA3E0F91204A16D600705
:100CF3000FBF00010E80D39000A0E0FBA3E0FAA396
:100D0300E0F98F828E831204BA700280239000A4CC
:100D1300E004F070069000A3E004F090009DE0FB77
:100D2300A3E475F00112054EA9F0FA1204A170971D
:100D33009000A3E0FEA3E0FF2290007BEFF0900081
:100D4300EDE0FE04F074EE2EF582E43400F583EF5B
:100D5300F09000EDE064017018A3E0642C6012E4ED
:100D63009000EDF0FE7F34FD7B017A0079EE020501
:100D7300999000EDE0C394347480948050089000FF
:100D83007BE0646070359000EDE024EDF582E4349F
:100D930000F583E4F078237C017D017B017A0079FF
:100DA300EEFE7F3412047B7E007F347D007B017A6C
:100DB3000079EE120599E49000EDF02290009DEB8E
:100DC300F0A3EAF0A3E9F09000A0E0F9A3E0FAA30E
:100DD300E0A3C9F0A3EAF0A3E9F09000A3E0FBA32A
:100DE300E0FAA3E0F91204A1FF601D90009DE0FB6F
:100DF300A3E0FAA3E0F91204A16F600C9000A4E44D
:100E030075F00112054E80D29000A3E0FBA3E0FA37
:100E1300A3E0F91204A1600C90009DE0FBA3E0FAAB
:100E2300A3E0F92290009DE0FBA3E475F001120515
:100E330064A9F0FA1204A1708EFBFAF922787F7C80
:100E4300007D017BFF7A1279687E007F4612047B66
:100E53009000C874FFF0A37412F0A37441F09001E2
:100E63005FE0FFA3E09000CBCFF0A3EFF090015D34
:100E7300E0FFA3E09000CDCFF0A3EFF0900168E096
:100E8300FFA3E09000CFCFF0A3EFF0900162E0FF6B
:100E9300A3E09000D1CFF0A3EFF090015BE0FFA3BC
:100EA300E09000D3CFF0A3EFF07B017A00797F12BB
:100EB30000AB7B017A00797F020FEAEF24FFFDEE9E
:100EC30034FFFC7F0A900084EEF0A3EFF0A3ECF074
:100ED300A3EDF0A3E4F0A304F0E4FBEBFFD3900055
:100EE30087E09F7480F8900086E0648098401E90AD
:100EF3000088E0FEA3E0FF900084E0FCA3E0FD1285
:100F030004E7900088EEF0A3EFF00B80CE9000880A
:100F1300E0FEA3E0FF227BFF7A12792B7D017F01A4
:100F230012101D90015BE0FAA3E0FB9000837403B1
:100F3300F07D057F011211057BFF7A1279187D0A76
:100F43007F0112101D900159E0FAA3E0FB9000838A
:100F53007403F07D0D7F011211057BFF7A12793046
:100F63007D017F0202101D4201590064C109410144
:100F73006100410122004100ED00603400EE0000F9
:100F8300000000000000000000000000000000005E
:100F9300000000000000000000000000000000004E
:100FA300000000000000000000000000000000003E
:100FB300000000C0E0C083C082C0D0900158E004AC
:100FC300F07006900157E004F0C3900158E094F4E8
:100FD300900157E094014006E4F0A3F0D209D0D089
:100FE300D082D083D0E0329000C5EBF0A3EAF0A327
:100FF300E9F09000C5E0FBA3E0FAA3E0F91204A135
:1010030060179000C5A3E475F001120564A9F0FA16
:101013001204A1FF12120980D92290007FEBF0A3E2
:10102300EAF0A3E9F01210E7E4FD90007FE0FBA3F0
:10103300E0FAA3E0F98D827583001204BAFF60061B
:101043001210D80D80E422C0E0C0F0C083C082C07B
:10105300D075D018900079E4F0A3F0309807C298C7
:10106300AF99120D3CD0D0D082D083D0F0D0E032F3
:10107300EFB40A07740D12107E740A309811A89900
:10108300B8130CC2983098FDA899C298B811F630DD
:1010930099FDC299F59922C0E0C083C082E59A30D8
:1010A300E009539AFE90007CE59BF0E59A30E10558
:1010B300539AFDC20AD082D083D0E032E0FCA3E091
:1010C300FDCFCDCFCECCCE1204F97C007D0A120425
:1010D300F9ED2430FFD2A51211CAC2A30211D0EA3E
:1010E300F0A3EBF0AE07EEFB7A0064017004ED149D
:1010F3008009EB64024A7009ED243F4480FF12111A
:10110300FF229000811210E2A3E0FAEAFF7E00D3EF
:10111300940074809480400C120EBE9000811210D3
:10112300BF1A80E72275BCC20000000043BC08E57B
:10113300BC5410641070F8AFBDADBEEFFEEDFF53AD
:10114300BCEFE4F5BDF5BE22E490007FF020B512BC
:101153007F14FE12118620B50690007F7401F030D3
:10116300B5FD90007FE0FF22759A50538EFB75D733
:10117300E875D6FF438E1053AFFE43AF01D2AF5392
:10118300BAFE22AD07AC06E4FBFAC3EB9DEA9C5022
:101193000A1211E80BBB00010A80EF22438E805331
:1011A30089F0758ACD758CD4C28DD28CD2A9D2AF79
:1011B300C2B922EFC394094005EF940E4004EFB483
:1011C3002003D38001C322C2A48F80D2A37F027ED7
:1011D300EFDEFEDFFC22EFC394304007EF943A507A
:1011E300028001C3220000007F0B7EBEDEFEDFFC17
:1011F30022759D0C4397200000000022C2A5121106
:10120300CAC2A30211D0C2998F993099FDC2992203
:10121300434F323A00424A3A005456433A00546D1F
:10122300703A0048756D3A005032353A002D2D2D35
:101233002D2D2D2D20202D2D2D2D2D2D2000434FF7
:10124300323D25752C54564F433D25752C546D70F6
:101253003D25750D0A48756D3D25752C5032353D7C
:1012630025750D0A000000000000000000000000CA
:10127300000000000000000000000000000000006B
:10128300000000000000000000000000000000005B
:10129300000000000000000000000000000000004B
:0B12A300000000000000000000000040
:00000001FF
